{
  "_format": "hh-sol-artifact-1",
  "contractName": "LudoGame",
  "sourceName": "contracts/LudoContract.sol",
  "abi": [
    {
      "inputs": [],
      "name": "addressZeroDetected",
      "type": "error"
    },
    {
      "inputs": [],
      "name": "alreadyAPlayer",
      "type": "error"
    },
    {
      "inputs": [],
      "name": "gameAlreadyStarted",
      "type": "error"
    },
    {
      "inputs": [],
      "name": "gameHasNotStarted",
      "type": "error"
    },
    {
      "inputs": [],
      "name": "maxPlayerReached",
      "type": "error"
    },
    {
      "inputs": [],
      "name": "minNumberOfPlayer2",
      "type": "error"
    },
    {
      "inputs": [],
      "name": "notAPlayer",
      "type": "error"
    },
    {
      "inputs": [],
      "name": "notYourTurn",
      "type": "error"
    },
    {
      "anonymous": false,
      "inputs": [
        {
          "indexed": true,
          "internalType": "address",
          "name": "player",
          "type": "address"
        }
      ],
      "name": "RegistrationSuccessful",
      "type": "event"
    },
    {
      "inputs": [
        {
          "internalType": "uint256",
          "name": "",
          "type": "uint256"
        }
      ],
      "name": "Players",
      "outputs": [
        {
          "internalType": "address",
          "name": "",
          "type": "address"
        }
      ],
      "stateMutability": "view",
      "type": "function"
    },
    {
      "inputs": [],
      "name": "gameState",
      "outputs": [
        {
          "internalType": "enum LudoGame.GameState",
          "name": "",
          "type": "uint8"
        }
      ],
      "stateMutability": "view",
      "type": "function"
    },
    {
      "inputs": [],
      "name": "numberOfPlayer",
      "outputs": [
        {
          "internalType": "uint256",
          "name": "",
          "type": "uint256"
        }
      ],
      "stateMutability": "view",
      "type": "function"
    },
    {
      "inputs": [],
      "name": "registerMe",
      "outputs": [],
      "stateMutability": "nonpayable",
      "type": "function"
    },
    {
      "inputs": [
        {
          "internalType": "address",
          "name": "_player",
          "type": "address"
        }
      ],
      "name": "registerPlayers",
      "outputs": [],
      "stateMutability": "nonpayable",
      "type": "function"
    },
    {
      "inputs": [],
      "name": "rollDice",
      "outputs": [],
      "stateMutability": "nonpayable",
      "type": "function"
    },
    {
      "inputs": [],
      "name": "startGame",
      "outputs": [],
      "stateMutability": "nonpayable",
      "type": "function"
    }
  ],
  "bytecode": "0x608060405234801561001057600080fd5b50610e1b806100206000396000f3fe608060405234801561001057600080fd5b506004361061007d5760003560e01c8063837e7cc61161005b578063837e7cc6146100ec5780639a198d61146100f6578063d1f9c24d14610100578063d65ab5f21461011e5761007d565b80630aa5c0911461008257806348ef3f031461009e5780634a71e850146100ce575b600080fd5b61009c60048036038101906100979190610ab4565b610128565b005b6100b860048036038101906100b39190610b17565b610370565b6040516100c59190610b53565b60405180910390f35b6100d66103af565b6040516100e39190610b7d565b60405180910390f35b6100f46103b5565b005b6100fe610518565b005b6101086107c8565b6040516101159190610c0f565b60405180910390f35b6101266107db565b005b6101306108ba565b600073ffffffffffffffffffffffffffffffffffffffff168173ffffffffffffffffffffffffffffffffffffffff1603610196576040517f221f3e7b00000000000000000000000000000000000000000000000000000000815260040160405180910390fd5b600660008273ffffffffffffffffffffffffffffffffffffffff1673ffffffffffffffffffffffffffffffffffffffff16815260200190815260200160002060009054906101000a900460ff161561021a576040517fb5b656e400000000000000000000000000000000000000000000000000000000815260040160405180910390fd5b600460005403610256576040517f1b216d3300000000000000000000000000000000000000000000000000000000815260040160405180910390fd5b6001600660008373ffffffffffffffffffffffffffffffffffffffff1673ffffffffffffffffffffffffffffffffffffffff16815260200190815260200160002060006101000a81548160ff0219169083151502179055506005819080600181540180825580915050600190039060005260206000200160009091909190916101000a81548173ffffffffffffffffffffffffffffffffffffffff021916908373ffffffffffffffffffffffffffffffffffffffff16021790555060016000808282546103239190610c59565b925050819055508073ffffffffffffffffffffffffffffffffffffffff167fdfebd6c8398c1f4b297814a186c9cf09146ce314d0de4c37cf3f11d33b3ae44760405160405180910390a250565b6005818154811061038057600080fd5b906000526020600020016000915054906101000a900473ffffffffffffffffffffffffffffffffffffffff1681565b60005481565b6103bd610922565b600160028111156103d1576103d0610b98565b5b600460009054906101000a900460ff1660028111156103f3576103f2610b98565b5b1461042a576040517f18202db400000000000000000000000000000000000000000000000000000000815260040160405180910390fd5b600160064233604051602001610441929190610cf6565b6040516020818303038152906040528051906020012060001c6104649190610d51565b61046e9190610c59565b60028190555060016006423360405160200161048b929190610cf6565b6040516020818303038152906040528051906020012060001c6104ae9190610d51565b6104b89190610c59565b6003819055506104d66003546002546104d19190610c59565b6109c9565b60016005805490506104e89190610d82565b6001541461050d5760018060008282546105029190610c59565b925050819055610515565b600060018190555b50565b6105206108ba565b600660003373ffffffffffffffffffffffffffffffffffffffff1673ffffffffffffffffffffffffffffffffffffffff16815260200190815260200160002060009054906101000a900460ff16156105a4576040517fb5b656e400000000000000000000000000000000000000000000000000000000815260040160405180910390fd5b6004600054036105e0576040517f1b216d3300000000000000000000000000000000000000000000000000000000815260040160405180910390fd5b6001600660003373ffffffffffffffffffffffffffffffffffffffff1673ffffffffffffffffffffffffffffffffffffffff16815260200190815260200160002060006101000a81548160ff0219169083151502179055506005339080600181540180825580915050600190039060005260206000200160009091909190916101000a81548173ffffffffffffffffffffffffffffffffffffffff021916908373ffffffffffffffffffffffffffffffffffffffff16021790555060006040518060c00160405280600081526020016000815260200160008152602001600081526020016000815260200160001515815250905080600860003373ffffffffffffffffffffffffffffffffffffffff1673ffffffffffffffffffffffffffffffffffffffff168152602001908152602001600020600082015181600001556020820151816001015560408201518160020155606082015181600301556080820151816004015560a08201518160050160006101000a81548160ff021916908315150217905550905050600160008082825461077b9190610c59565b925050819055503373ffffffffffffffffffffffffffffffffffffffff167fdfebd6c8398c1f4b297814a186c9cf09146ce314d0de4c37cf3f11d33b3ae44760405160405180910390a250565b600460009054906101000a900460ff1681565b6107e36109cc565b60026000541015610820576040517fe97855a500000000000000000000000000000000000000000000000000000000815260040160405180910390fd5b6000600281111561083457610833610b98565b5b600460009054906101000a900460ff16600281111561085657610855610b98565b5b1461088d576040517f6ced724d00000000000000000000000000000000000000000000000000000000815260040160405180910390fd5b6001600460006101000a81548160ff021916908360028111156108b3576108b2610b98565b5b0217905550565b600073ffffffffffffffffffffffffffffffffffffffff163373ffffffffffffffffffffffffffffffffffffffff1603610920576040517f221f3e7b00000000000000000000000000000000000000000000000000000000815260040160405180910390fd5b565b3373ffffffffffffffffffffffffffffffffffffffff1660056001548154811061094f5761094e610db6565b5b9060005260206000200160009054906101000a900473ffffffffffffffffffffffffffffffffffffffff1673ffffffffffffffffffffffffffffffffffffffff16146109c7576040517f8e19071300000000000000000000000000000000000000000000000000000000815260040160405180910390fd5b565b50565b600660003373ffffffffffffffffffffffffffffffffffffffff1673ffffffffffffffffffffffffffffffffffffffff16815260200190815260200160002060009054906101000a900460ff16610a4f576040517f98278f4b00000000000000000000000000000000000000000000000000000000815260040160405180910390fd5b565b600080fd5b600073ffffffffffffffffffffffffffffffffffffffff82169050919050565b6000610a8182610a56565b9050919050565b610a9181610a76565b8114610a9c57600080fd5b50565b600081359050610aae81610a88565b92915050565b600060208284031215610aca57610ac9610a51565b5b6000610ad884828501610a9f565b91505092915050565b6000819050919050565b610af481610ae1565b8114610aff57600080fd5b50565b600081359050610b1181610aeb565b92915050565b600060208284031215610b2d57610b2c610a51565b5b6000610b3b84828501610b02565b91505092915050565b610b4d81610a76565b82525050565b6000602082019050610b686000830184610b44565b92915050565b610b7781610ae1565b82525050565b6000602082019050610b926000830184610b6e565b92915050565b7f4e487b7100000000000000000000000000000000000000000000000000000000600052602160045260246000fd5b60038110610bd857610bd7610b98565b5b50565b6000819050610be982610bc7565b919050565b6000610bf982610bdb565b9050919050565b610c0981610bee565b82525050565b6000602082019050610c246000830184610c00565b92915050565b7f4e487b7100000000000000000000000000000000000000000000000000000000600052601160045260246000fd5b6000610c6482610ae1565b9150610c6f83610ae1565b9250828201905080821115610c8757610c86610c2a565b5b92915050565b6000819050919050565b610ca8610ca382610ae1565b610c8d565b82525050565b60008160601b9050919050565b6000610cc682610cae565b9050919050565b6000610cd882610cbb565b9050919050565b610cf0610ceb82610a76565b610ccd565b82525050565b6000610d028285610c97565b602082019150610d128284610cdf565b6014820191508190509392505050565b7f4e487b7100000000000000000000000000000000000000000000000000000000600052601260045260246000fd5b6000610d5c82610ae1565b9150610d6783610ae1565b925082610d7757610d76610d22565b5b828206905092915050565b6000610d8d82610ae1565b9150610d9883610ae1565b9250828203905081811115610db057610daf610c2a565b5b92915050565b7f4e487b7100000000000000000000000000000000000000000000000000000000600052603260045260246000fdfea26469706673582212205c9bc04f1ef981d62a7758e93a69b9d30d27cf7f8199b3508f5ca7f2165f6d3e64736f6c63430008180033",
  "linkReferences": {},
  "deployedLinkReferences": {}
}